{
  "contractName": "TestToken",
  "abi": [
    {
      "inputs": [],
      "stateMutability": "nonpayable",
      "type": "constructor"
    },
    {
      "anonymous": false,
      "inputs": [
        {
          "indexed": true,
          "internalType": "address",
          "name": "owner",
          "type": "address"
        },
        {
          "indexed": true,
          "internalType": "address",
          "name": "spender",
          "type": "address"
        },
        {
          "indexed": false,
          "internalType": "uint256",
          "name": "value",
          "type": "uint256"
        }
      ],
      "name": "Approval",
      "type": "event"
    },
    {
      "anonymous": false,
      "inputs": [
        {
          "indexed": true,
          "internalType": "address",
          "name": "from",
          "type": "address"
        },
        {
          "indexed": true,
          "internalType": "address",
          "name": "to",
          "type": "address"
        },
        {
          "indexed": false,
          "internalType": "uint256",
          "name": "value",
          "type": "uint256"
        }
      ],
      "name": "Transfer",
      "type": "event"
    },
    {
      "inputs": [
        {
          "internalType": "address",
          "name": "owner",
          "type": "address"
        },
        {
          "internalType": "address",
          "name": "spender",
          "type": "address"
        }
      ],
      "name": "allowance",
      "outputs": [
        {
          "internalType": "uint256",
          "name": "",
          "type": "uint256"
        }
      ],
      "stateMutability": "view",
      "type": "function",
      "constant": true
    },
    {
      "inputs": [
        {
          "internalType": "address",
          "name": "spender",
          "type": "address"
        },
        {
          "internalType": "uint256",
          "name": "amount",
          "type": "uint256"
        }
      ],
      "name": "approve",
      "outputs": [
        {
          "internalType": "bool",
          "name": "",
          "type": "bool"
        }
      ],
      "stateMutability": "nonpayable",
      "type": "function"
    },
    {
      "inputs": [
        {
          "internalType": "address",
          "name": "account",
          "type": "address"
        }
      ],
      "name": "balanceOf",
      "outputs": [
        {
          "internalType": "uint256",
          "name": "",
          "type": "uint256"
        }
      ],
      "stateMutability": "view",
      "type": "function",
      "constant": true
    },
    {
      "inputs": [],
      "name": "decimals",
      "outputs": [
        {
          "internalType": "uint8",
          "name": "",
          "type": "uint8"
        }
      ],
      "stateMutability": "view",
      "type": "function",
      "constant": true
    },
    {
      "inputs": [
        {
          "internalType": "address",
          "name": "spender",
          "type": "address"
        },
        {
          "internalType": "uint256",
          "name": "subtractedValue",
          "type": "uint256"
        }
      ],
      "name": "decreaseAllowance",
      "outputs": [
        {
          "internalType": "bool",
          "name": "",
          "type": "bool"
        }
      ],
      "stateMutability": "nonpayable",
      "type": "function"
    },
    {
      "inputs": [
        {
          "internalType": "address",
          "name": "spender",
          "type": "address"
        },
        {
          "internalType": "uint256",
          "name": "addedValue",
          "type": "uint256"
        }
      ],
      "name": "increaseAllowance",
      "outputs": [
        {
          "internalType": "bool",
          "name": "",
          "type": "bool"
        }
      ],
      "stateMutability": "nonpayable",
      "type": "function"
    },
    {
      "inputs": [],
      "name": "name",
      "outputs": [
        {
          "internalType": "string",
          "name": "",
          "type": "string"
        }
      ],
      "stateMutability": "view",
      "type": "function",
      "constant": true
    },
    {
      "inputs": [],
      "name": "owner",
      "outputs": [
        {
          "internalType": "address",
          "name": "",
          "type": "address"
        }
      ],
      "stateMutability": "view",
      "type": "function",
      "constant": true
    },
    {
      "inputs": [],
      "name": "symbol",
      "outputs": [
        {
          "internalType": "string",
          "name": "",
          "type": "string"
        }
      ],
      "stateMutability": "view",
      "type": "function",
      "constant": true
    },
    {
      "inputs": [],
      "name": "totalSupply",
      "outputs": [
        {
          "internalType": "uint256",
          "name": "",
          "type": "uint256"
        }
      ],
      "stateMutability": "view",
      "type": "function",
      "constant": true
    },
    {
      "inputs": [
        {
          "internalType": "address",
          "name": "to",
          "type": "address"
        },
        {
          "internalType": "uint256",
          "name": "amount",
          "type": "uint256"
        }
      ],
      "name": "transfer",
      "outputs": [
        {
          "internalType": "bool",
          "name": "",
          "type": "bool"
        }
      ],
      "stateMutability": "nonpayable",
      "type": "function"
    },
    {
      "inputs": [
        {
          "internalType": "address",
          "name": "from",
          "type": "address"
        },
        {
          "internalType": "address",
          "name": "to",
          "type": "address"
        },
        {
          "internalType": "uint256",
          "name": "amount",
          "type": "uint256"
        }
      ],
      "name": "transferFrom",
      "outputs": [
        {
          "internalType": "bool",
          "name": "",
          "type": "bool"
        }
      ],
      "stateMutability": "nonpayable",
      "type": "function"
    },
    {
      "inputs": [],
      "name": "mint",
      "outputs": [],
      "stateMutability": "nonpayable",
      "type": "function"
    },
    {
      "inputs": [
        {
          "internalType": "address",
          "name": "add",
          "type": "address"
        },
        {
          "internalType": "uint256",
          "name": "val",
          "type": "uint256"
        }
      ],
      "name": "transferToken",
      "outputs": [],
      "stateMutability": "nonpayable",
      "type": "function"
    }
  ],
  "bytecode": "0x60806040523480156200001157600080fd5b506040518060400160405280600281526020017f54540000000000000000000000000000000000000000000000000000000000008152506040518060400160405280600981526020017f74657374546f6b656e000000000000000000000000000000000000000000000081525081600390816200008f919062000512565b508060049081620000a1919062000512565b50505033600560006101000a81548173ffffffffffffffffffffffffffffffffffffffff021916908373ffffffffffffffffffffffffffffffffffffffff1602179055506200011b600560009054906101000a900473ffffffffffffffffffffffffffffffffffffffff166127106200012160201b60201c565b62000714565b600073ffffffffffffffffffffffffffffffffffffffff168273ffffffffffffffffffffffffffffffffffffffff160362000193576040517f08c379a00000000000000000000000000000000000000000000000000000000081526004016200018a906200065a565b60405180910390fd5b620001a7600083836200028e60201b60201c565b8060026000828254620001bb9190620006ab565b92505081905550806000808473ffffffffffffffffffffffffffffffffffffffff1673ffffffffffffffffffffffffffffffffffffffff168152602001908152602001600020600082825401925050819055508173ffffffffffffffffffffffffffffffffffffffff16600073ffffffffffffffffffffffffffffffffffffffff167fddf252ad1be2c89b69c2b068fc378daa952ba7f163c4a11628f55a4df523b3ef836040516200026e9190620006f7565b60405180910390a36200028a600083836200029360201b60201c565b5050565b505050565b505050565b600081519050919050565b7f4e487b7100000000000000000000000000000000000000000000000000000000600052604160045260246000fd5b7f4e487b7100000000000000000000000000000000000000000000000000000000600052602260045260246000fd5b600060028204905060018216806200031a57607f821691505b60208210810362000330576200032f620002d2565b5b50919050565b60008190508160005260206000209050919050565b60006020601f8301049050919050565b600082821b905092915050565b6000600883026200039a7fffffffffffffffffffffffffffffffffffffffffffffffffffffffffffffffff826200035b565b620003a686836200035b565b95508019841693508086168417925050509392505050565b6000819050919050565b6000819050919050565b6000620003f3620003ed620003e784620003be565b620003c8565b620003be565b9050919050565b6000819050919050565b6200040f83620003d2565b620004276200041e82620003fa565b84845462000368565b825550505050565b600090565b6200043e6200042f565b6200044b81848462000404565b505050565b5b8181101562000473576200046760008262000434565b60018101905062000451565b5050565b601f821115620004c2576200048c8162000336565b62000497846200034b565b81016020851015620004a7578190505b620004bf620004b6856200034b565b83018262000450565b50505b505050565b600082821c905092915050565b6000620004e760001984600802620004c7565b1980831691505092915050565b6000620005028383620004d4565b9150826002028217905092915050565b6200051d8262000298565b67ffffffffffffffff811115620005395762000538620002a3565b5b62000545825462000301565b6200055282828562000477565b600060209050601f8311600181146200058a576000841562000575578287015190505b620005818582620004f4565b865550620005f1565b601f1984166200059a8662000336565b60005b82811015620005c4578489015182556001820191506020850194506020810190506200059d565b86831015620005e45784890151620005e0601f891682620004d4565b8355505b6001600288020188555050505b505050505050565b600082825260208201905092915050565b7f45524332303a206d696e7420746f20746865207a65726f206164647265737300600082015250565b600062000642601f83620005f9565b91506200064f826200060a565b602082019050919050565b60006020820190508181036000830152620006758162000633565b9050919050565b7f4e487b7100000000000000000000000000000000000000000000000000000000600052601160045260246000fd5b6000620006b882620003be565b9150620006c583620003be565b9250828201905080821115620006e057620006df6200067c565b5b92915050565b620006f181620003be565b82525050565b60006020820190506200070e6000830184620006e6565b92915050565b6114e380620007246000396000f3fe608060405234801561001057600080fd5b50600436106100ea5760003560e01c8063395093511161008c57806395d89b411161006657806395d89b411461024d578063a457c2d71461026b578063a9059cbb1461029b578063dd62ed3e146102cb576100ea565b806339509351146101cf57806370a08231146101ff5780638da5cb5b1461022f576100ea565b80631249c58b116100c85780631249c58b1461015957806318160ddd1461016357806323b872dd14610181578063313ce567146101b1576100ea565b806306fdde03146100ef578063095ea7b31461010d5780631072cbea1461013d575b600080fd5b6100f76102fb565b6040516101049190610d2a565b60405180910390f35b61012760048036038101906101229190610de5565b61038d565b6040516101349190610e40565b60405180910390f35b61015760048036038101906101529190610de5565b6103b0565b005b6101616103bf565b005b61016b6103cd565b6040516101789190610e6a565b60405180910390f35b61019b60048036038101906101969190610e85565b6103d7565b6040516101a89190610e40565b60405180910390f35b6101b9610406565b6040516101c69190610ef4565b60405180910390f35b6101e960048036038101906101e49190610de5565b61040f565b6040516101f69190610e40565b60405180910390f35b61021960048036038101906102149190610f0f565b610446565b6040516102269190610e6a565b60405180910390f35b61023761048e565b6040516102449190610f4b565b60405180910390f35b6102556104b4565b6040516102629190610d2a565b60405180910390f35b61028560048036038101906102809190610de5565b610546565b6040516102929190610e40565b60405180910390f35b6102b560048036038101906102b09190610de5565b6105bd565b6040516102c29190610e40565b60405180910390f35b6102e560048036038101906102e09190610f66565b6105e0565b6040516102f29190610e6a565b60405180910390f35b60606003805461030a90610fd5565b80601f016020809104026020016040519081016040528092919081815260200182805461033690610fd5565b80156103835780601f1061035857610100808354040283529160200191610383565b820191906000526020600020905b81548152906001019060200180831161036657829003601f168201915b5050505050905090565b600080610398610667565b90506103a581858561066f565b600191505092915050565b6103ba82826105bd565b505050565b6103cb336103e8610838565b565b6000600254905090565b6000806103e2610667565b90506103ef85828561098e565b6103fa858585610a1a565b60019150509392505050565b60006012905090565b60008061041a610667565b905061043b81858561042c85896105e0565b6104369190611035565b61066f565b600191505092915050565b60008060008373ffffffffffffffffffffffffffffffffffffffff1673ffffffffffffffffffffffffffffffffffffffff168152602001908152602001600020549050919050565b600560009054906101000a900473ffffffffffffffffffffffffffffffffffffffff1681565b6060600480546104c390610fd5565b80601f01602080910402602001604051908101604052809291908181526020018280546104ef90610fd5565b801561053c5780601f106105115761010080835404028352916020019161053c565b820191906000526020600020905b81548152906001019060200180831161051f57829003601f168201915b5050505050905090565b600080610551610667565b9050600061055f82866105e0565b9050838110156105a4576040517f08c379a000000000000000000000000000000000000000000000000000000000815260040161059b906110db565b60405180910390fd5b6105b1828686840361066f565b60019250505092915050565b6000806105c8610667565b90506105d5818585610a1a565b600191505092915050565b6000600160008473ffffffffffffffffffffffffffffffffffffffff1673ffffffffffffffffffffffffffffffffffffffff16815260200190815260200160002060008373ffffffffffffffffffffffffffffffffffffffff1673ffffffffffffffffffffffffffffffffffffffff16815260200190815260200160002054905092915050565b600033905090565b600073ffffffffffffffffffffffffffffffffffffffff168373ffffffffffffffffffffffffffffffffffffffff16036106de576040517f08c379a00000000000000000000000000000000000000000000000000000000081526004016106d59061116d565b60405180910390fd5b600073ffffffffffffffffffffffffffffffffffffffff168273ffffffffffffffffffffffffffffffffffffffff160361074d576040517f08c379a0000000000000000000000000000000000000000000000000000000008152600401610744906111ff565b60405180910390fd5b80600160008573ffffffffffffffffffffffffffffffffffffffff1673ffffffffffffffffffffffffffffffffffffffff16815260200190815260200160002060008473ffffffffffffffffffffffffffffffffffffffff1673ffffffffffffffffffffffffffffffffffffffff168152602001908152602001600020819055508173ffffffffffffffffffffffffffffffffffffffff168373ffffffffffffffffffffffffffffffffffffffff167f8c5be1e5ebec7d5bd14f71427d1e84f3dd0314c0f7b2291e5b200ac8c7c3b9258360405161082b9190610e6a565b60405180910390a3505050565b600073ffffffffffffffffffffffffffffffffffffffff168273ffffffffffffffffffffffffffffffffffffffff16036108a7576040517f08c379a000000000000000000000000000000000000000000000000000000000815260040161089e9061126b565b60405180910390fd5b6108b360008383610c90565b80600260008282546108c59190611035565b92505081905550806000808473ffffffffffffffffffffffffffffffffffffffff1673ffffffffffffffffffffffffffffffffffffffff168152602001908152602001600020600082825401925050819055508173ffffffffffffffffffffffffffffffffffffffff16600073ffffffffffffffffffffffffffffffffffffffff167fddf252ad1be2c89b69c2b068fc378daa952ba7f163c4a11628f55a4df523b3ef836040516109769190610e6a565b60405180910390a361098a60008383610c95565b5050565b600061099a84846105e0565b90507fffffffffffffffffffffffffffffffffffffffffffffffffffffffffffffffff8114610a145781811015610a06576040517f08c379a00000000000000000000000000000000000000000000000000000000081526004016109fd906112d7565b60405180910390fd5b610a13848484840361066f565b5b50505050565b600073ffffffffffffffffffffffffffffffffffffffff168373ffffffffffffffffffffffffffffffffffffffff1603610a89576040517f08c379a0000000000000000000000000000000000000000000000000000000008152600401610a8090611369565b60405180910390fd5b600073ffffffffffffffffffffffffffffffffffffffff168273ffffffffffffffffffffffffffffffffffffffff1603610af8576040517f08c379a0000000000000000000000000000000000000000000000000000000008152600401610aef906113fb565b60405180910390fd5b610b03838383610c90565b60008060008573ffffffffffffffffffffffffffffffffffffffff1673ffffffffffffffffffffffffffffffffffffffff16815260200190815260200160002054905081811015610b89576040517f08c379a0000000000000000000000000000000000000000000000000000000008152600401610b809061148d565b60405180910390fd5b8181036000808673ffffffffffffffffffffffffffffffffffffffff1673ffffffffffffffffffffffffffffffffffffffff16815260200190815260200160002081905550816000808573ffffffffffffffffffffffffffffffffffffffff1673ffffffffffffffffffffffffffffffffffffffff168152602001908152602001600020600082825401925050819055508273ffffffffffffffffffffffffffffffffffffffff168473ffffffffffffffffffffffffffffffffffffffff167fddf252ad1be2c89b69c2b068fc378daa952ba7f163c4a11628f55a4df523b3ef84604051610c779190610e6a565b60405180910390a3610c8a848484610c95565b50505050565b505050565b505050565b600081519050919050565b600082825260208201905092915050565b60005b83811015610cd4578082015181840152602081019050610cb9565b60008484015250505050565b6000601f19601f8301169050919050565b6000610cfc82610c9a565b610d068185610ca5565b9350610d16818560208601610cb6565b610d1f81610ce0565b840191505092915050565b60006020820190508181036000830152610d448184610cf1565b905092915050565b600080fd5b600073ffffffffffffffffffffffffffffffffffffffff82169050919050565b6000610d7c82610d51565b9050919050565b610d8c81610d71565b8114610d9757600080fd5b50565b600081359050610da981610d83565b92915050565b6000819050919050565b610dc281610daf565b8114610dcd57600080fd5b50565b600081359050610ddf81610db9565b92915050565b60008060408385031215610dfc57610dfb610d4c565b5b6000610e0a85828601610d9a565b9250506020610e1b85828601610dd0565b9150509250929050565b60008115159050919050565b610e3a81610e25565b82525050565b6000602082019050610e556000830184610e31565b92915050565b610e6481610daf565b82525050565b6000602082019050610e7f6000830184610e5b565b92915050565b600080600060608486031215610e9e57610e9d610d4c565b5b6000610eac86828701610d9a565b9350506020610ebd86828701610d9a565b9250506040610ece86828701610dd0565b9150509250925092565b600060ff82169050919050565b610eee81610ed8565b82525050565b6000602082019050610f096000830184610ee5565b92915050565b600060208284031215610f2557610f24610d4c565b5b6000610f3384828501610d9a565b91505092915050565b610f4581610d71565b82525050565b6000602082019050610f606000830184610f3c565b92915050565b60008060408385031215610f7d57610f7c610d4c565b5b6000610f8b85828601610d9a565b9250506020610f9c85828601610d9a565b9150509250929050565b7f4e487b7100000000000000000000000000000000000000000000000000000000600052602260045260246000fd5b60006002820490506001821680610fed57607f821691505b60208210810361100057610fff610fa6565b5b50919050565b7f4e487b7100000000000000000000000000000000000000000000000000000000600052601160045260246000fd5b600061104082610daf565b915061104b83610daf565b925082820190508082111561106357611062611006565b5b92915050565b7f45524332303a2064656372656173656420616c6c6f77616e63652062656c6f7760008201527f207a65726f000000000000000000000000000000000000000000000000000000602082015250565b60006110c5602583610ca5565b91506110d082611069565b604082019050919050565b600060208201905081810360008301526110f4816110b8565b9050919050565b7f45524332303a20617070726f76652066726f6d20746865207a65726f2061646460008201527f7265737300000000000000000000000000000000000000000000000000000000602082015250565b6000611157602483610ca5565b9150611162826110fb565b604082019050919050565b600060208201905081810360008301526111868161114a565b9050919050565b7f45524332303a20617070726f766520746f20746865207a65726f20616464726560008201527f7373000000000000000000000000000000000000000000000000000000000000602082015250565b60006111e9602283610ca5565b91506111f48261118d565b604082019050919050565b60006020820190508181036000830152611218816111dc565b9050919050565b7f45524332303a206d696e7420746f20746865207a65726f206164647265737300600082015250565b6000611255601f83610ca5565b91506112608261121f565b602082019050919050565b6000602082019050818103600083015261128481611248565b9050919050565b7f45524332303a20696e73756666696369656e7420616c6c6f77616e6365000000600082015250565b60006112c1601d83610ca5565b91506112cc8261128b565b602082019050919050565b600060208201905081810360008301526112f0816112b4565b9050919050565b7f45524332303a207472616e736665722066726f6d20746865207a65726f20616460008201527f6472657373000000000000000000000000000000000000000000000000000000602082015250565b6000611353602583610ca5565b915061135e826112f7565b604082019050919050565b6000602082019050818103600083015261138281611346565b9050919050565b7f45524332303a207472616e7366657220746f20746865207a65726f206164647260008201527f6573730000000000000000000000000000000000000000000000000000000000602082015250565b60006113e5602383610ca5565b91506113f082611389565b604082019050919050565b60006020820190508181036000830152611414816113d8565b9050919050565b7f45524332303a207472616e7366657220616d6f756e742065786365656473206260008201527f616c616e63650000000000000000000000000000000000000000000000000000602082015250565b6000611477602683610ca5565b91506114828261141b565b604082019050919050565b600060208201905081810360008301526114a68161146a565b905091905056fea26469706673582212207ca4beae24e66fb421eb46693e83e568304c0e052e085a7cf122d22e77e5044a64736f6c63430008110033",
  "immutableReferences": {},
  "source": "// SPDX-License-Identifier: MIT\r\npragma solidity ^0.8.0;\r\nimport \"@openzeppelin/contracts/token/ERC20/ERC20.sol\";\r\ncontract TestToken is ERC20(\"TT\",\"testToken\"){\r\n address public owner;\r\n constructor() {\r\n     owner=msg.sender;\r\n     _mint(owner,10000);\r\n }\r\n function mint() public{\r\n     _mint(msg.sender,1000);\r\n }\r\n function transferToken(address add,uint val)public {\r\n     transfer(add,val);\r\n }\r\n}",
  "sourcePath": "D:\\TestToken\\contracts\\TestToken.sol",
  "compiler": {
    "name": "solc",
    "version": "0.8.17+commit.8df45f5f.Emscripten.clang"
  },
  "schemaVersion": "3.4.11",
  "updatedAt": "2022-12-09T15:37:13.630Z",
  "networkType": "ethereum",
  "devdoc": {
    "kind": "dev",
    "methods": {
      "allowance(address,address)": {
        "details": "See {IERC20-allowance}."
      },
      "approve(address,uint256)": {
        "details": "See {IERC20-approve}. NOTE: If `amount` is the maximum `uint256`, the allowance is not updated on `transferFrom`. This is semantically equivalent to an infinite approval. Requirements: - `spender` cannot be the zero address."
      },
      "balanceOf(address)": {
        "details": "See {IERC20-balanceOf}."
      },
      "decimals()": {
        "details": "Returns the number of decimals used to get its user representation. For example, if `decimals` equals `2`, a balance of `505` tokens should be displayed to a user as `5.05` (`505 / 10 ** 2`). Tokens usually opt for a value of 18, imitating the relationship between Ether and Wei. This is the value {ERC20} uses, unless this function is overridden; NOTE: This information is only used for _display_ purposes: it in no way affects any of the arithmetic of the contract, including {IERC20-balanceOf} and {IERC20-transfer}."
      },
      "decreaseAllowance(address,uint256)": {
        "details": "Atomically decreases the allowance granted to `spender` by the caller. This is an alternative to {approve} that can be used as a mitigation for problems described in {IERC20-approve}. Emits an {Approval} event indicating the updated allowance. Requirements: - `spender` cannot be the zero address. - `spender` must have allowance for the caller of at least `subtractedValue`."
      },
      "increaseAllowance(address,uint256)": {
        "details": "Atomically increases the allowance granted to `spender` by the caller. This is an alternative to {approve} that can be used as a mitigation for problems described in {IERC20-approve}. Emits an {Approval} event indicating the updated allowance. Requirements: - `spender` cannot be the zero address."
      },
      "name()": {
        "details": "Returns the name of the token."
      },
      "symbol()": {
        "details": "Returns the symbol of the token, usually a shorter version of the name."
      },
      "totalSupply()": {
        "details": "See {IERC20-totalSupply}."
      },
      "transfer(address,uint256)": {
        "details": "See {IERC20-transfer}. Requirements: - `to` cannot be the zero address. - the caller must have a balance of at least `amount`."
      },
      "transferFrom(address,address,uint256)": {
        "details": "See {IERC20-transferFrom}. Emits an {Approval} event indicating the updated allowance. This is not required by the EIP. See the note at the beginning of {ERC20}. NOTE: Does not update the allowance if the current allowance is the maximum `uint256`. Requirements: - `from` and `to` cannot be the zero address. - `from` must have a balance of at least `amount`. - the caller must have allowance for ``from``'s tokens of at least `amount`."
      }
    },
    "version": 1
  },
  "userdoc": {
    "kind": "user",
    "methods": {},
    "version": 1
  }
}