{
  "contractName": "Yebelo",
  "abi": [
    {
      "inputs": [],
      "stateMutability": "nonpayable",
      "type": "constructor"
    },
    {
      "inputs": [],
      "name": "owner",
      "outputs": [
        {
          "internalType": "address",
          "name": "",
          "type": "address"
        }
      ],
      "stateMutability": "view",
      "type": "function",
      "constant": true
    },
    {
      "inputs": [
        {
          "internalType": "address",
          "name": "",
          "type": "address"
        }
      ],
      "name": "user",
      "outputs": [
        {
          "internalType": "uint256",
          "name": "slab0",
          "type": "uint256"
        },
        {
          "internalType": "uint256",
          "name": "slab1",
          "type": "uint256"
        },
        {
          "internalType": "uint256",
          "name": "slab2",
          "type": "uint256"
        },
        {
          "internalType": "uint256",
          "name": "slab3",
          "type": "uint256"
        },
        {
          "internalType": "uint256",
          "name": "slab4",
          "type": "uint256"
        },
        {
          "internalType": "string",
          "name": "deposited",
          "type": "string"
        }
      ],
      "stateMutability": "view",
      "type": "function",
      "constant": true
    },
    {
      "inputs": [
        {
          "internalType": "address",
          "name": "_token",
          "type": "address"
        }
      ],
      "name": "getTokens",
      "outputs": [],
      "stateMutability": "payable",
      "type": "function",
      "payable": true
    }
  ],
  "bytecode": "0x608060405234801561001057600080fd5b5033600160006101000a81548173ffffffffffffffffffffffffffffffffffffffff021916908373ffffffffffffffffffffffffffffffffffffffff160217905550610cb9806100616000396000f3fe6080604052600436106100345760003560e01c8063450efe211461003957806381e7e20e146100555780638da5cb5b14610097575b600080fd5b610053600480360381019061004e919061053f565b6100c2565b005b34801561006157600080fd5b5061007c6004803603810190610077919061053f565b6103f2565b60405161008e96959493929190610615565b60405180910390f35b3480156100a357600080fd5b506100ac6104b6565b6040516100b9919061068c565b60405180910390f35b60008173ffffffffffffffffffffffffffffffffffffffff166370a08231306040518263ffffffff1660e01b81526004016100fd919061068c565b602060405180830381865afa15801561011a573d6000803e3d6000fd5b505050506040513d601f19601f8201168201806040525081019061013e91906106d3565b905060008114158015610152575060648111155b156101915780600260000181905550604051806060016040528060278152602001610bb5602791396002600501908161018b919061093b565b50610363565b60648161019e9190610a3c565b90506064600260000181905550600081141580156101bd575060c88111155b156101fc5780600260010181905550604051806060016040528060318152602001610c5360319139600260050190816101f6919061093b565b50610362565b60c8816102099190610a3c565b905060c860026001018190555060008114158015610229575061012c8111155b1561026757806002800181905550604051806060016040528060388152602001610bdc6038913960026005019081610261919061093b565b50610361565b61012c816102759190610a3c565b905061012c60028001819055506000811415801561029557506101908111155b156102d457806002600301819055506040518060600160405280603f8152602001610c14603f9139600260050190816102ce919061093b565b50610360565b610190816102e29190610a3c565b90506101906002600301819055506000811415801561030357506101f48111155b156103425780600260040181905550604051806080016040528060468152602001610b6f604691396002600501908161033c919061093b565b5061035f565b6101f4816103509190610a3c565b90506101f46002600401819055505b5b5b5b5b6002600860003373ffffffffffffffffffffffffffffffffffffffff1673ffffffffffffffffffffffffffffffffffffffff1681526020019081526020016000206000820154816000015560018201548160010155600282015481600201556003820154816003015560048201548160040155600582018160050190816103ea9190610a86565b509050505050565b60086020528060005260406000206000915090508060000154908060010154908060020154908060030154908060040154908060050180546104339061075e565b80601f016020809104026020016040519081016040528092919081815260200182805461045f9061075e565b80156104ac5780601f10610481576101008083540402835291602001916104ac565b820191906000526020600020905b81548152906001019060200180831161048f57829003601f168201915b5050505050905086565b600160009054906101000a900473ffffffffffffffffffffffffffffffffffffffff1681565b600080fd5b600073ffffffffffffffffffffffffffffffffffffffff82169050919050565b600061050c826104e1565b9050919050565b61051c81610501565b811461052757600080fd5b50565b60008135905061053981610513565b92915050565b600060208284031215610555576105546104dc565b5b60006105638482850161052a565b91505092915050565b6000819050919050565b61057f8161056c565b82525050565b600081519050919050565b600082825260208201905092915050565b60005b838110156105bf5780820151818401526020810190506105a4565b60008484015250505050565b6000601f19601f8301169050919050565b60006105e782610585565b6105f18185610590565b93506106018185602086016105a1565b61060a816105cb565b840191505092915050565b600060c08201905061062a6000830189610576565b6106376020830188610576565b6106446040830187610576565b6106516060830186610576565b61065e6080830185610576565b81810360a083015261067081846105dc565b9050979650505050505050565b61068681610501565b82525050565b60006020820190506106a1600083018461067d565b92915050565b6106b08161056c565b81146106bb57600080fd5b50565b6000815190506106cd816106a7565b92915050565b6000602082840312156106e9576106e86104dc565b5b60006106f7848285016106be565b91505092915050565b7f4e487b7100000000000000000000000000000000000000000000000000000000600052604160045260246000fd5b7f4e487b7100000000000000000000000000000000000000000000000000000000600052602260045260246000fd5b6000600282049050600182168061077657607f821691505b6020821081036107895761078861072f565b5b50919050565b60008190508160005260206000209050919050565b60006020601f8301049050919050565b600082821b905092915050565b6000600883026107f17fffffffffffffffffffffffffffffffffffffffffffffffffffffffffffffffff826107b4565b6107fb86836107b4565b95508019841693508086168417925050509392505050565b6000819050919050565b600061083861083361082e8461056c565b610813565b61056c565b9050919050565b6000819050919050565b6108528361081d565b61086661085e8261083f565b8484546107c1565b825550505050565b600090565b61087b61086e565b610886818484610849565b505050565b5b818110156108aa5761089f600082610873565b60018101905061088c565b5050565b601f8211156108ef576108c08161078f565b6108c9846107a4565b810160208510156108d8578190505b6108ec6108e4856107a4565b83018261088b565b50505b505050565b600082821c905092915050565b6000610912600019846008026108f4565b1980831691505092915050565b600061092b8383610901565b9150826002028217905092915050565b61094482610585565b67ffffffffffffffff81111561095d5761095c610700565b5b610967825461075e565b6109728282856108ae565b600060209050601f8311600181146109a55760008415610993578287015190505b61099d858261091f565b865550610a05565b601f1984166109b38661078f565b60005b828110156109db578489015182556001820191506020850194506020810190506109b6565b868310156109f857848901516109f4601f891682610901565b8355505b6001600288020188555050505b505050505050565b7f4e487b7100000000000000000000000000000000000000000000000000000000600052601160045260246000fd5b6000610a478261056c565b9150610a528361056c565b9250828203905081811115610a6a57610a69610a0d565b5b92915050565b600081549050610a7f8161075e565b9050919050565b818103610a94575050610b6c565b610a9d82610a70565b67ffffffffffffffff811115610ab657610ab5610700565b5b610ac0825461075e565b610acb8282856108ae565b6000601f831160018114610afa5760008415610ae8578287015490505b610af2858261091f565b865550610b65565b601f198416610b088761078f565b9650610b138661078f565b60005b82811015610b3b57848901548255600182019150600185019450602081019050610b16565b86831015610b585784890154610b54601f891682610901565b8355505b6001600288020188555050505b5050505050505b56fe50726576696f7573207472616e73616374696f6e204465706f736974656420696e20536c6162302c20536c6162312c20536c6162322c20536c61623320616e6420536c61623450726576696f7573207472616e73616374696f6e204465706f736974656420696e20536c61623050726576696f7573207472616e73616374696f6e204465706f736974656420696e20536c6162302c20536c61623120616e6420536c61623250726576696f7573207472616e73616374696f6e204465706f736974656420696e20536c6162302c20536c6162312c20536c61623220616e6420536c61623350726576696f7573207472616e73616374696f6e204465706f736974656420696e20536c61623020616e6420536c616231a26469706673582212207445d205c6c166125d7bff923ae134e34fa58d965abbd87e411fcdccc14c646f64736f6c63430008110033",
  "immutableReferences": {},
  "source": "// SPDX-License-Identifier: MIT\r\npragma solidity ^0.8.0;\r\nimport \"@openzeppelin/contracts/token/ERC20/IERC20.sol\";\r\ncontract Yebelo{\r\n    address token;\r\n    address public owner;\r\n    struct Slabs{\r\n        uint slab0;\r\n        uint slab1;\r\n        uint slab2;\r\n        uint slab3;\r\n        uint slab4;\r\n        string deposited;\r\n    }\r\n    Slabs  sla;\r\n    mapping (address=>Slabs) public user;\r\n    constructor(){\r\n    owner= msg.sender;\r\n    }\r\n\r\n    function getTokens(address _token ) public   payable  {\r\n        uint Nval=IERC20(_token).balanceOf(address(this));\r\n        \r\n        if(Nval!=0 && Nval<=100){\r\n                sla.slab0 = Nval;\r\n                sla.deposited = \"Previous transaction Deposited in Slab0\";\r\n        }else{\r\n                Nval-=100;\r\n                sla.slab0 = 100  ;\r\n                \r\n            if(Nval!=0 && Nval<=200){\r\n                    sla.slab1 = Nval;\r\n                    sla.deposited = \"Previous transaction Deposited in Slab0 and Slab1\";\r\n                }else{\r\n                    Nval-=200;\r\n                    sla.slab1 = 200  ;\r\n                    if(Nval!=0 && Nval<=300){\r\n                            sla.slab2 = Nval;\r\n                            sla.deposited = \"Previous transaction Deposited in Slab0, Slab1 and Slab2\";\r\n                        }else{\r\n                            Nval-=300;\r\n                            sla.slab2 = 300  ;\r\n                            \r\n                             if(Nval!=0 && Nval<=400){\r\n                                    sla.slab3 = Nval;\r\n                                    sla.deposited = \"Previous transaction Deposited in Slab0, Slab1, Slab2 and Slab3\";\r\n                                }else{\r\n                                    Nval-=400;\r\n                                    sla.slab3 = 400  ;\r\n                                    \r\n                                      if(Nval!=0 && Nval<=500){\r\n                                            sla.slab4 = Nval;\r\n                                            sla.deposited = \"Previous transaction Deposited in Slab0, Slab1, Slab2, Slab3 and Slab4\";\r\n                                        }else{\r\n                                            Nval-=500;\r\n                                            sla.slab4 = 500  ;\r\n                                            \r\n                                        }\r\n                                    \r\n                                }\r\n                            }\r\n                        }\r\n                     }    \r\n    \r\n            user[msg.sender]=sla;\r\n\r\n    }\r\n}",
  "sourcePath": "D:\\Yebelo\\contracts\\Yebelo.sol",
  "compiler": {
    "name": "solc",
    "version": "0.8.17+commit.8df45f5f.Emscripten.clang"
  },
  "schemaVersion": "3.4.11",
  "updatedAt": "2022-12-09T15:43:27.505Z",
  "networkType": "ethereum",
  "devdoc": {
    "kind": "dev",
    "methods": {},
    "version": 1
  },
  "userdoc": {
    "kind": "user",
    "methods": {},
    "version": 1
  }
}